:1000000000C00120790000009D0000009D0000005C
:100010009D0000009D0000009D0000000000000009
:100020000000000000000000000000009D00000033
:100030009D000000000000009D0000009D000000E9
:100040009D00000000F000B80248034900F006F8E7
:10005000FEE7000014000020A0000000024612F895
:10006000013B002BFBD1013A11F8013B02F8013BA7
:10007000002BF9D1704700BF0549064A064B9A424A
:10008000BEBF51F8040B42F8040BF8E7FFF7DAFFA4
:10009000A40000000000002018000020FEE700BFC0
:0400A0005354520063
:1000A40000000000000000000102033405060708F8
:0800B400214365874453540009
:040000030000007980
:00000001FF
