:1000000000C001207D000000A1000000A100000050
:10001000A1000000A1000000A100000000000000FD
:10002000000000000000000000000000A10000002F
:10003000A100000000000000A1000000A1000000DD
:10004000A100000000F000B80A480B4900F001F8D8
:100050000FE010B5044610F8012B002AFBD1A0F1E7
:10006000010011F8012B00F8012B002AF9D12046DC
:1000700010BDFEE714000020A40000000549064A58
:10008000064B9A42BEBF51F8040B42F8040BF8E746
:10009000FFF7D8FFA8000000000000202400002087
:0800A000FEE700BF53545200BB
:1000A80000000000000000000102033405060708F4
:1000B80021436587000000000000000000000000E8
:0400C8000000000034
:040000030000007D7C
:00000001FF
